:020000040800F2
:10000000A007002091010008F1180008E918000875
:10001000ED18000891040008111900080000000004
:10002000000000000000000000000000F9180008B7
:100030009504000800000000F5180008FD180008ED
:10004000AB010008AB010008AB010008AB010008E0
:10005000AB010008AB010008AB010008AB010008D0
:10006000AB010008AB010008AB010008AB010008C0
:10007000AB010008AB010008AB010008AB010008B0
:10008000AB010008AB010008AB010008AB010008A0
:10009000AB010008AB010008AB010008AB01000890
:1000A000AB010008AB010008AB010008AB01000880
:1000B000AB01000805190008AB010008AB010008FE
:1000C000AB010008AB010008AB010008AB01000860
:1000D000AB010008AB010008AB010008AB01000850
:1000E000AB010008AB010008AB01000800F002F80A
:1000F00000F03FF80AA090E8000C82448344AAF183
:100100000107DA4501D100F034F8AFF2090EBAE880
:100110000F0013F0010F18BFFB1A43F0010318473B
:100120007C1B00009C1B0000103A24BF78C878C1DB
:10013000FAD8520724BF30C830C144BF04680C60ED
:10014000704700000023002400250026103A28BF35
:1001500078C1FBD8520728BF30C148BF0B60704739
:10016000642900F07D80002070471FB51FBD10B5C9
:1001700010BD00F052F91146FFF7F7FF01F0CAFB7E
:1001800000F070F903B4FFF7F2FF03BC00F078F958
:100190000948804709480047FEE7FEE7FEE7FEE71B
:1001A000FEE7FEE7FEE7FEE7FEE7FEE70448054957
:1001B000054A064B7047000001190008ED000008D1
:1001C000A0010020A0070020A0030020A003002021
:1001D0000FB41CB5074B06AA7B44694600900598EE
:1001E00000F003F90020694600F012F91CBC5DF82C
:1001F00014FB0000350200002DE9F0410E460446D4
:10020000002020622046E168884730B3252805D0C9
:10021000D4E901219047206A401CF2E7E1682046BA
:1002200000278847050018D0A5F14100192802D8F9
:1002300020354FF400673246294620462760FFF7F5
:100240008FFF40B1012804D0F61D26F007060836BE
:10025000D8E7361DD6E72846DAE7206ABDE8F08100
:100260002DE9F0410646002410687529314616A58F
:1002700010D0AFF30080002802DA404213A507E057
:1002800031688A0701D512A502E0490704D511A5F6
:10029000012401E0AFF3008000210A2206F12407C7
:1002A00009E0B0FBF2FCB0FBF2F302FB1C003030C3
:1002B00078541846491C0028F3D123462A46304674
:1002C000BDE8F04100F032B8000000002D00000051
:1002D0002B000000200000004FF0000200B5134684
:1002E00094469646203922BFA0E80C50A0E80C5056
:1002F000B1F12001BFF4F7AF090728BFA0E80C5007
:1003000048BF0CC05DF804EB890028BF40F8042BFF
:1003100008BF704748BF20F8022B11F0804F18BF6C
:1003200000F8012B70477047704770472DE9F04780
:100330000D4699469246044600F124080168880655
:1003400004D5E06921F01001216000E00120A842FD
:1003500001DD471B00E00027A1697A1902EB0900C3
:10036000081AA0612078C00602D42046AFF30080AE
:10037000002608E0D4E901211AF806009047206A17
:10038000401C761C20624E45F4DB2078C0060AD55E
:100390002046AFF3008006E0D4E9012130209047E9
:1003A000206A401C2062381EA7F10107F4DC07E038
:1003B000D4E9012118F805009047206A401C20620A
:1003C000281EA5F10105F3DC2046AFF3008020785C
:1003D000000602D50220BDE8F0870120FBE70000FF
:1003E00001694A1C02610878704700B58FB0CDE9F9
:1003F00001310021059105497944CDE903101146E9
:100400006846FFF7F9FE0FB000BD0000E5FFFFFFF3
:100410000A6802F8010B0A607047754600F02CF874
:10042000AE4605006946534620F00700854618B0E1
:1004300020B5FFF7BBFEBDE820404FF000064FF0AF
:1004400000074FF000084FF0000BAC46ACE8C009C5
:10045000ACE8C009ACE8C009ACE8C00921F007016C
:100460008D46704710B50446AFF300802046BDE8C6
:100470001040FFF787BE00000048704710000020C2
:1004800001491820ABBEFEE72600020070470000BD
:10049000FEE7000070470000B0B5044600F02EF9FA
:1004A000054640F20000C2F200000078611C18BF4F
:1004B000044400BF00F022F9401BA042FAD3B0BDB3
:1004C0002DE9F04F82B041F20042C4F201020E6801
:1004D0000423904208BF0323002E009300F0F6800F
:1004E00040F20C4E4FF6FF7CC4F2010E00220124B4
:1004F000C1F2100C4FF0000A4FF0000943E000BFBA
:10050000012502F00C040F27A7402BEA070705FA84
:1005100004F43C4343F82640D1F804B040F20045CF
:10052000C4F201055FEACB332B6854BF23EA08030A
:1005300043EA08032B606B685FEA8B3454BF23EAFD
:10054000080343EA08036B605FEACB24AB6854BF3F
:1005500023EA080343EA08035FEA8B24AB60DEF872
:1005600000304FF0010454BF23EA080343EA0803B4
:10057000CEF800300E680AF1010A36FA0AF302F1E9
:10058000040200F0A38004FA0AF816EA080FF1D07A
:100590004B68634512DC122B56D8DFE803F0350BAD
:1005A0004549555555555555555555555555554D1F
:1005B000510000BFD1F80C9046E000BF4FF6FF7726
:1005C000C1F22107BB420FDC0027C1F21107BB4279
:1005D0001AD00027C1F21207BB4215D00027C1F282
:1005E0002107BB4210D02FE00027C1F22207BB42F7
:1005F0000AD00027C1F23107BB4205D00027C1F263
:100600003207BB4220D100BF8B684BB1012B14BF16
:10061000C0F81480C0F810804FF0080914E000BF43
:100620004FF0040910E000BFCB6803F108090BE0AC
:100630004FF0000908E000BFCB6803F1040903E0B4
:10064000CB6803F10C0900BF13460546BAF1080F49
:1006500024BF203B04352E680F279F40BE4309FA74
:1006600003F333432B60CB79DB067FF583AF41F295
:100670001804C4F2020423684FEA9A0643F0010307
:100680002360236840F6000403F001030193019BFB
:1006900040F20043C4F20103A3F57E7353F826B081
:1006A000C4F20104A0420FD040F60044C4F2010499
:1006B000A0423FF425AF41F20004C4F20104009DC2
:1006C000A04208BF02251CE700251AE702B0BDE8DA
:1006D000F08F00008068084018BF012070470000BC
:1006E000C26802EA0103914341EA03410161704794
:1006F000002A08BF090401617047000040F2981009
:10070000C2F200000068704770B5B8B3044690F8B4
:100710003D0028B9002084F83C00204600F0B0F8E5
:10072000242084F83D002068016821F00101016067
:10073000016841F400410160016821F40041016059
:1007400000F05CFA48F28041C0F21E0140F600134E
:10075000D4F804E088424FF00001C0F23D0348F2B3
:10076000A16C4FF0000238BF01219842C0F2010C89
:1007700038BF0122E64538BF0A460AB1012070BDE4
:100780004DF68361C4F21B31A0FB01122168950C68
:100790004B684FF4967623F03F0343EA9243754348
:1007A00044F6D3564B60C1F262060B6AA5FB0656AF
:1007B000B50923F03F03E64538BF950C6A1C1A4380
:1007C0000A62CA6948F2A0664CF6FF73C0F20106DD
:1007D000B64522EA03020BD801384FEA4E03B0FBBC
:1007E000F3F001306FF31F30042898BF04201EE09F
:1007F000A368013863B119230EFB03F3B0FBF3F0D8
:1008000001306FF31F3078B100F5804008E000BF81
:100810000EEB4E03B0FBF3F001306FF31F3028B145
:1008200000F5004003E000BF012000E0012010437C
:10083000C8610868D4E9072320F0C00010431843BA
:100840000860886848F2FF3204F10C0690434CCEF1
:1008500018431043A5698860C86820F0FF00304342
:100860002843C860086840F001000860002020218B
:10087000206484F83D10206384F83E0070BD0000C1
:1008800010B586B045F200410068C4F200010022B4
:100890008842049202D006B010BD00BF41F2180495
:1008A000C4F20204206840F008002060206800F0D4
:1008B000080001900198C0200290122003900320AC
:1008C000059001F5384002A9FFF7FAFD606840F491
:1008D00000106060606800F400100190019806B09C
:1008E00010BD000040F2000040F29811C2F200007A
:1008F000C2F2000100780A681044086070470000E6
:1009000080B542F20000C4F20200016841F010011B
:100910000160032000F082F80F2000F005F800F0DD
:1009200027F8002080BD000070B540F20006C2F23A
:10093000000640F208013278C2F200014FF47A73E7
:100940000968B3FBF2F20446B1FBF2F1084600F08D
:1009500057FB0F2C4FF0010508D838B94FF0FF3086
:1009600021460022002500F02DF87460284670BD55
:1009700082B041F21800C4F20200016841F00101A6
:100980000160016801F0010101910199416841F0A4
:1009900080514160406800F080500090009802B0A3
:1009A00070470000002848BF704700F01F01012277
:1009B00002FA01F14EF200124009CEF2000242F8B2
:1009C0002010704710B54EF60C5CCEF2000CDCF82F
:1009D0000030C3F3022E8EF00704042C28BF042439
:1009E000BEF103034FF0FF3E0EFA04F438BF0023BC
:1009F000A14399400EFA03F39A43114300F00F020A
:100A0000043A624409010C3200F16043B0F1FF3F47
:100A1000C8BF03F56442117010BD00004EF60C51C2
:100A2000CEF200010A684FF6FF031A4060F30A2273
:100A300042F0806040F0FD70086070472DE9F0439F
:100A400081B0002800F0858042F20008C4F202085C
:100A50000446D8F800000D4600F0070088420CD28A
:100A6000D8F8000020F007002843C8F80000D8F8A4
:100A7000000000F00700A8426BD1206841F2040991
:100A80008107C4F2020917D5410705D5D9F800102E
:100A900041F4E061C9F80010010705D5D9F800104C
:100AA00041F46051C9F80010D9F80010A26821F093
:100AB000F0011143C9F80010C00741D1D8F8000077
:100AC00000F00700A8420CD9D8F8000020F0070079
:100AD0002843C8F80000D8F8000000F00700A8423A
:100AE00037D12068410707D5D9F80010E26821F412
:100AF000E0611143C9F80010000708D5D9F80000DB
:100B0000216920F4605040EAC100C9F80000D9F81A
:100B1000002002F00C00082841F20020C0F27A0008
:100B200050D141F68A43C2F38341C0F60003595CB9
:100B3000D2033BD440F60010C0F23D00484341E0F0
:100B4000606802280AD001282AD159F8041C8903B8
:100B500008D4012001B0BDE8F08300BF59F8041C9F
:100B60008901F6D5D9F8001021F003010843C9F82E
:100B70000000FFF7C3FD064641F28837D9F80000B0
:100B8000616800F00C00B0EB810F97D0FFF7B6FD65
:100B9000801BB842F2D9032001B0BDE8F08300BF4A
:100BA00059F8041C8907D4D5DCE700BFD9F8002028
:100BB00041F67043C2F34042C0F600039A5C4843DA
:100BC000B0FBF2F0D9F8001041F67242C1F3031104
:100BD000C0F60002515C40F2080220FA01F140F236
:100BE0000400C2F200000068C2F200021160FFF7C8
:100BF0009BFE002001B0BDE8F083000040F2080039
:100C000041F20401C2F20000C4F202010068096866
:100C100041F68242C1F30221C0F60002515CC84095
:100C20007047000040F2080041F20401C2F20000E7
:100C3000C4F202010068096841F68242C1F3C22190
:100C4000C0F60002515CC840704700002DE9F04139
:100C500082B0002868D00446007841F20006C00740
:100C6000C4F2020625D0706800F00C0004281BD0E6
:100C7000706800F00C00082802D17068C00313D41B
:100C80006068002800F06881B0F5A02F00F07C813A
:100C9000B0F5803F00F07C81306820F48030306017
:100CA000306820F4802076E13068800301D56068E8
:100CB000D0B32078800718D5706810F00C0F07D0DB
:100CC000706800F00C0008286ED17068C0036BD407
:100CD0003068800702D52069012825D13068616914
:100CE00020F0F80040EAC1003060207800071FD4EF
:100CF0002078400732D4E56995B1706800F00C00A7
:100D0000082840F08F80012D0ED07068216A00F411
:100D100080328A4208D1616A00F47010884203D19F
:100D2000002002B0BDE8F081012002B0BDE8F081F2
:100D3000A069002862D00020C4F242200121C0F83E
:100D40008014FFF7DBFC0546706A800700F18C8099
:100D5000FFF7D4FC401B0228F6D92AE1F06910F015
:100D6000805808D1F06940F08050F061F06900F0DF
:100D700080500090009847F20007C4F200073868DE
:100D8000C00529D4386840F480703860FFF7B6FC9D
:100D9000054600BF3868C0051ED4FFF7AFFC401BF6
:100DA0006428F7D905E100BF2069002840F200005F
:100DB000C4F2422000F0828001210160FFF79EFC16
:100DC000054600BF306880073FF588AFFFF796FC07
:100DD000401B0228F6D9ECE0E068002800F0808093
:100DE000052800F09780012800F09880306A20F0F4
:100DF00001003062306A20F0040092E00020C4F26A
:100E000042200021C0F88014FFF778FC054600BF9F
:100E1000706A80077FF56CAFFFF770FC401B0228FB
:100E2000F6D9C6E00027C4F2422700203866FFF753
:100E300065FC022D05460BD13068800140F1BE8073
:100E4000FFF75CFC401B02284FF00300F4D968E771
:100E5000306880017FF564AFFFF750FC401B02282B
:100E60004FF00300F4D95CE740F20800C2F2000042
:100E7000006844F6D351C1F26201A0FB0101480AA7
:100E8000019000BF00BF0198411E002801913FF46E
:100E90002FAF00BF0198411E002801913FF428AFF9
:100EA00000BF0198411E002801913FF421AF00BF0F
:100EB0000198411E00280191E4D119E70021016049
:100EC000FFF71CFC054600BF306880077FF50DAFBB
:100ED000FFF714FC401B02284FF00300F4D920E771
:100EE000306A20F001003062306A20F00400306285
:100EF000FFF704FC054641F2883700BF306A8007DF
:100F000020D5FFF7FBFB401BB8424FF00300F5D99B
:100F100007E700BF306A40F004003062306A40F0FA
:100F200001003062FFF7EAFB054641F2883700BF57
:100F3000306A800706D4FFF7E1FB401BB842F7D9BF
:100F400037E000BFB8F1000F7FF4D5AEF06920F0B4
:100F50008050F061CFE600BF306820F48030306010
:100F6000306820F480203060FFF7C8FB054600BFE2
:100F7000306880037FF59DAEFFF7C0FB401B6428FF
:100F80004FF00300F4D9CCE6306840F480203060A4
:100F9000306840F480303060FFF7B0FB054600BF9A
:100FA000306880033FF585AEFFF7A8FB401B64283F
:100FB000F6D9032002B0BDE8F08100BF206AB0F589
:100FC000803F05D17168A26821F40031114371603E
:100FD0007168626A21F47411104308437060012043
:100FE0003866FFF78BFB0446306880013FF598AE0A
:100FF000FFF784FB001B02284FF00300F4D990E6B2
:10100000411E0020B0EB116F1CBF012070474EF253
:101010001002CEF2000251604EF62351CEF20001D2
:10102000F0230B700721906011607047704700003B
:101030007047000010B590F83C20012A4FF00202E2
:1010400033D080F83D200268D2F804E0D2F808C01E
:101050000C682EF07003234340F2FF74C4F20004C6
:10106000A24253600ADCB2F1804F13D040F2004339
:10107000C4F200039A420DD011E000BF42F60043D3
:10108000C4F201039A4205D040F60003C4F2000303
:101090009A4204D149682CF08003194391600121E0
:1010A000002280F83D1080F83C20104610BD000062
:1010B000002804BF0120704710B5044690F83D0099
:1010C00028B9002084F83C00204600F067F8022090
:1010D00084F83D00206840F2FF730268C4F2000308
:1010E00042F6004C9842C4F2010C15DCB0F1804F7E
:1010F0001AD040F20041C4F20001884214D0984254
:1011000018DCB0F1804F1DD040F20041C4F2000164
:10111000884217D01AE000BF604505D040F60001B4
:10112000C4F200018842EAD1A16822F070020A43A9
:101130009842E6DD604505D040F60001C4F20001AA
:10114000884203D1216922F440720A43A36922F044
:101150008001D4F804E0E268194360450160C2628E
:10116000C0F828E002D16169CCF83010012141615A
:10117000002084F8461084F83E1084F83F1084F86C
:10118000401084F8411084F8421084F8431084F829
:10119000441084F8451084F83D1010BD80B582B02D
:1011A000006840F20041C4F2000188421CBF02B056
:1011B00080BD41F21C00C4F202000168002241F02F
:1011C000020101600068002100F002000190019816
:1011D0001D20FFF7F7FB1D2002B0BDE88040FFF7A0
:1011E000E1BB000090F83D1001291CBF01207047B1
:1011F000022180F83D10006840F2FF72C168C4F21D
:101200000002904241F00101C16009DCB0F1804F61
:1012100012D040F20041C4F2000188420CD012E02A
:1012200042F60041C4F20101884205D040F60001B7
:10123000C4F20001884206D1816801F00701062945
:1012400004BF00207047016841F0010101600020E7
:101250007047000080B590F83C20012A4FF0020250
:1012600000F0BF8080F83D20D0F800C04FF67772C4
:10127000DCF8083023EA0202CCF808200B683F2B88
:101280001CDD5F2B20DD602B50D0B3F5005F6DD0EF
:10129000702B40F0A080D1E901E3C968DCF8082098
:1012A00043EA0E0322F47F4243EA01211143CCF8C2
:1012B0000810DCF8081041F077018AE01F2B29DCC8
:1012C00063B3102B2AD086E0402B63D0502B40F024
:1012D0008280D1F804E0C968DCF82030DCF82020F6
:1012E00022F00102CCF82020DCF8182022F0F002D5
:1012F00042EA011123F00A0242EA0E02CCF8181069
:10130000CCF82020DCF8081041F0570121F0200132
:101310005FE000BF202B01D0302B5CD1DCF808103F
:1013200021F07001194341F0070152E0D1F804E0C7
:10133000C968DCF8203023F01003CCF82030DCF84A
:101340001830DCF8202023F4704322F0A00243EA96
:10135000013142EA0E12CCF81810CCF82020DCF84B
:10136000081041F0670121F0100132E0D1E901E3FA
:10137000C968DCF8082043EA0E0322F47F4243EAFE
:1013800001211143CCF80810DCF8081041F4804129
:101390001FE000BFD1F804E0C968DCF82030DCF8B9
:1013A000202022F00102CCF82020DCF8182022F0C6
:1013B000F00242EA011123F00A0242EA0E02CCF8DE
:1013C0001810CCF82020DCF8081041F0470121F07B
:1013D0003001CCF808100121002280F83D1080F87F
:1013E0003C20104680BD00007047000010B5016829
:1013F00004460869800744BFC8685FEA807039D432
:101400000869400744BFC8685FEA40703ED4086975
:10141000000744BFC8685FEA007045D40869C00689
:1014200044BFC8685FEAC0604AD40869C0071CBFEF
:10143000C8685FEAC07051D10869000644BFC86837
:101440005FEA006052D40869400644BFC8685FEA9A
:10145000406053D40869800646BFC8685FEA806070
:1014600010BD6FF0200220460A61BDE81040FFF772
:10147000DFBD00BF6FF0020008610120207788699E
:10148000800743D02046FFF7AFFF45E06FF0040030
:10149000086102202077886910F4407F40D0204600
:1014A000FFF7A2FF42E000BF6FF0080008610420D0
:1014B0002077C86980073DD02046FFF795FF3FE0C1
:1014C0006FF01000086108202077C86910F4407F91
:1014D0003AD02046FFF788FF3CE000BF6FF00100E4
:1014E0000861204600F03EF82168A5E76FF0800013
:1014F00008612046FFF79AFD2168A4E76FF04000DD
:101500000861204600F036F82168A3E7204600F085
:1015100025F8204600F024F82168002020776FE7A6
:10152000204600F01BF8204600F01AF82168002041
:1015300020776CE7204600F011F8204600F010F804
:1015400021680020207769E7204600F007F8204650
:1015500000F006F821680020207766E77047000059
:101560007047000040F27000C2F2000001880131B3
:101570000180704770470000002804BF01207047B9
:1015800010B5044690F83D0028B9002084F83C00CE
:10159000204600F05FF8242084F83D002068D4E95C
:1015A0000212C36823F40053C360036923F4405359
:1015B0001A430261D4E904231143C268194341F27A
:1015C0000C639A431143C1604169A26921F44071DF
:1015D000114343F60002C4F201029042416103D07C
:1015E000FFF70CFB02E000BFFFF71CFB626819214C
:1015F00048439100B0FBF1F048F21F51C5F2EB11E6
:10160000A0FB01235A096FF0630302FB030032239E
:1016100003EB0010A0FB0101F02303EA5113206843
:1016200003EB0212C1F3431111448160016921F4FB
:1016300090410161416921F02A014161C16841F491
:101640000051C16000202021206484F83D1084F8FE
:101650003E1010BD10B586B0006844F60001C4F21B
:10166000000188424FF00001CDE90411CDE90211DB
:101670002ED043F60001C4F20101884259D141F253
:101680001800C4F20200016840F6000441F48041F1
:1016900001600168C4F2010401F4804101910199E3
:1016A000016841F004010160006802A900F0040033
:1016B000019001984FF400700290022003900320E3
:1016C00005902046FEF7FCFE4FF4806029E000BF45
:1016D00041F21800C4F20200416841F480214160E7
:1016E000416801F4802101910199016841F00801EC
:1016F0000160006802A900F00800019001984FF411
:1017000080600290022003900320059040F60000C4
:10171000C4F2010000F580642046FEF7D1FE4FF4CC
:10172000006002900020CDE9030002A92046FEF7E8
:10173000C7FE06B010BD00002DE9F04381B004469D
:1017400090F83D0020280DD10F4600294FF00100F0
:1017500000F092801646002A00F08E8094F83C003B
:10176000012803D1022001B0BDE8F083012084F8F4
:101770003C004FF0000921201D46C4F8409084F839
:101780003D00FEF7BBFFA684E684A1688046B1F564
:10179000805F25D1206900281CBF38464F463E4651
:1017A000074684F83C90E08C00B3681C20D0002DE4
:1017B00066D120680BE000BF36F8021B00276FF3EC
:1017C0005F214160E18C0139E184E18C81B30168E2
:1017D000090675D5002FEFD017F8011BF1E700BF00
:1017E000002684F83C90E08C0028DED120681FE0C1
:1017F000206802E00168090609D40168090606D4D8
:10180000016809065CBF01685FEA0161F2D51FB19A
:1018100017F8011B05E000BF36F8021B00276FF325
:101820005F214160E18C0139E184E18C0029E4D140
:10183000016849061CD4002D42D0691C0ED10168F4
:10184000490615D4016849065CBF01685FEA416139
:101850000ED401684906F2D50AE000BFFEF74EFF3C
:10186000A0EB08012068A9422AD800684006F5D5F7
:10187000202084F83D00002001B0BDE8F08300BFC7
:10188000206800BF0168090608D4FEF737FFA0EB07
:1018900008012068A942F5D912E000BF17B117F876
:1018A000011B04E036F8021B00276FF35F21416043
:1018B000E18C0139E184E18C0029E3D1B8E700BF74
:1018C000C16821F4D071C160416921F00101416119
:1018D000202084F83D0084F83E00002084F83C007D
:1018E000032001B0BDE8F083FEE70000FEE7000042
:1018F000FEE700007047000070470000FEF7F2BFEF
:101900007047000040F20C10C2F20000FFF76EBDFD
:10191000FEE70000AEB0FEF7F3FF08AC201D242167
:10192000FEF7DAFC0220089001200C9010200D90A8
:10193000002520460F95FFF789F928B1EFF31080B5
:1019400072B600BFFEE700BF0F20CDE9280528A82A
:101950000021CDE92A552C95FFF770F820B1EFF35F
:10196000108072B6FEE700BF41F21800C4F2020018
:10197000016840F6000941F0100101600168C4F2FD
:10198000010901F0100108910899016809F5006A40
:1019900041F0040101600168002201F00401089196
:1019A000089901684FF4005441F008010160006893
:1019B0004FF4005100F008000890089850460025A8
:1019C000FEF796FE0894012008ACCDE90905022631
:1019D000504621460B96FEF773FD182008A961C1F9
:1019E00048462146FEF76CFD40F2700BC2F2000B38
:1019F00009F54051584640F8041F4FF416510C2287
:101A0000C0E90115C0E90355C0E90525C561FFF727
:101A1000B3FD28B1EFF3108072B600BFFEE700BF40
:101A200040F2B800A9F53441C2F2000048F2A062C9
:101A30004FF48043C0F2010280E82600C0E903535E
:101A4000C0E90555C0E90755FEF75EFE20B1EFF38A
:101A5000108072B6FEE700BF40F25410A9F5404175
:101A6000C2F2000000240C234FF4E13280E816009B
:101A7000C0E90344C0E90534C461FFF77DFD28B126
:101A8000EFF3108072B600BFFEE700BF40F20C100B
:101A9000A9F58231C2F2000082224FF6FF7380E87E
:101AA000160080210B94CDE90944CDE92844C0E912
:101AB00003348161FFF7FCFA20B1EFF3108072B6B6
:101AC000FEE700BF4FF48050089040F20C10C2F2C5
:101AD000000008A9FFF7BEFB20B1EFF3108072B63B
:101AE000FEE700BF40F20C10C2F2000028A9FFF789
:101AF000A1FA28B1EFF3108072B600BFFEE700BF75
:101B000040F20C10C2F20000FFF76CFB53A04168DA
:101B100090F812800791816808AE0691C1680BF1B8
:101B200004070591018A48A00491416803918168E6
:101B30000291C16800690191009002E00020ABF8B9
:101B4000000050464FF40051FEF7CAFD4FF47A7082
:101B5000FEF7A2FC48460821FEF7BCFD04464846B5
:101B60001021FEF7B7FD054630468021FEF7B4FB95
:101B7000012C08BF002D1BD0012D08BF002C35D033
:101B800054EA0500DDD1BBF80020152AD6D3304633
:101B900026A1FEF71DFB34463846214601224FF4AC
:101BA0007A73FFF7C9FD14F8010F0028F4D1C5E7D7
:101BB000BBF800000A28C4D128483446089007988A
:101BC0008DF83280099006980A9005980B90049839
:101BD000ADF830003846214601224FF47A73FFF702
:101BE000ABFD14F8010F0028F4D11AE0BBF8000097
:101BF0000A28A6D114483446089003980990029800
:101C00000A9001980B9000980C9000BF384621462E
:101C100001224FF47A73FFF78FFD14F8010F0028AB
:101C2000F4D14FF47A70FEF737FC8AE7536C6565A0
:101C300070206F6B20746F74616C2074696D653AED
:101C40002564200A00000000737461727420736CB4
:101C5000656570207269676874200A007374617228
:101C60007420736C656570206C656674200A0000D2
:101C7000010200000000000000000102030406074A
:101C8000080900000000010203040203040506071E
:101C900008090A0B0C0D0E0F10100000C01C0008E4
:101CA000000000201000000028010008D01C0008DF
:101CB0001000002090070000440100080000000010
:101CC00001000000100000000024F40000000000EB
:04000005080000ED02
:00000001FF
